:100000000C946B000C9493000C9493000C9493004C
:100010000C9493000C9493000C9493000C94930014
:100020000C9493000C9493000C9493000C94930004
:100030000C9493000C9493000C9493000C949300F4
:100040000C9419040C9493000C9489040C9463048C
:100050000C9493000C9493000C9493000C949300D4
:100060000C9493000C9493009B019D019F01A101AE
:10007000A301A501A701A901000000002400270099
:100080002A0000000000250028002B0000000000CE
:1000900023002600290004040404040404040202CA
:1000A00002020202030303030303010204081020F7
:1000B0004080010204081020010204081020000002
:1000C0000008000201000003040700000000000017
:1000D0000000BB04440811241FBECFEFD8E0DEBFF0
:1000E000CDBF21E0A8E1B1E001C01D92A53DB2075E
:1000F000E1F711E0A0E0B1E0EEE6F3E102C0059027
:100100000D92A831B107D9F710E0CAE6D0E004C0DB
:100110002197FE010E947708C936D107C9F70E94CE
:1001200017050C94AA090C940000833081F028F480
:10013000813099F08230A1F008958730A9F088309D
:10014000B9F08430D1F4809180008F7D03C080911C
:1001500080008F7780938000089584B58F7702C0E8
:1001600084B58F7D84BD08958091B0008F7703C0E2
:100170008091B0008F7D8093B0000895CF93DF937E
:10018000282F30E0F901E254FF4F8491F901E65540
:10019000FF4FD491F901EA56FF4FC491CC2391F05F
:1001A00081110E949500EC2FF0E0EE0FFF1FE45745
:1001B000FF4FA591B491EC91ED2381E090E021F403
:1001C00080E002C080E090E0DF91CF9108950F932E
:1001D0001F93CF93DF9382E00E94BE008C0183E0E7
:1001E0000E94BE00EC0184E00E94BE00A1E0B0E0ED
:1001F000CD2B11F0A0E0B0E0ED01CC0FDD1FA1E0B0
:10020000B0E0892B11F0A0E0B0E0AA0FBB1FAA0F4D
:10021000BB1FAC2BC1E0012B09F0C0E0CA2B85E06D
:100220000E94BE00E1E0F0E0892B11F0E0E0F0E098
:10023000A3E0EE0FFF1FAA95E1F7CE2B86E00E9408
:10024000BE0061E070E0892B11F060E070E0E4E056
:10025000660F771FEA95E1F7C62B87E00E94BE0084
:1002600041E050E0892B11F040E050E065E0440FA0
:10027000551F6A95E1F7C42B88E00E94BE0021E07B
:1002800030E0892B11F020E030E046E0220F331FF0
:100290004A95E1F7C22B89E00E94BE0021E030E0E0
:1002A000892B11F020E030E0C9019695982F88271E
:1002B000979587958C2BDF91CF911F910F91089582
:1002C0001F93CF93DF93282F30E0F901E254FF4FC3
:1002D0008491F901E655FF4FD491F901EA56FF4F99
:1002E000C491CC23C1F0162F81110E949500EC2FF0
:1002F000F0E0EE0FFF1FEE57FF4FA591B4919FB7AF
:10030000F894111104C08C91D095D82302C0EC91BF
:10031000DE2BDC939FBFDF91CF911F91089590E07A
:10032000FC013197E830F105B8F4EC5CFF4F81E057
:1003300068270C94770882E00DC083E00BC084E04E
:1003400009C085E007C086E005C087E003C088E0FB
:1003500001C089E00C9460010895CF93DF9390E091
:10036000FC01E655FF4F2491FC01EA56FF4F8491B2
:10037000882361F190E0880F991FFC01E858FF4F36
:10038000C591D491FC01EE57FF4FA591B491611135
:1003900009C09FB7F8948881209582238883EC91C7
:1003A0002E230BC0623061F49FB7F8948881322FFE
:1003B000309583238883EC912E2B2C939FBF06C00E
:1003C0008FB7F894E8812E2B28838FBFDF91CF91D0
:1003D00008953FB7F8948091190190911A01A09166
:1003E0001B01B0911C0126B5A89B05C02F3F19F039
:1003F0000196A11DB11D3FBFBA2FA92F982F8827A5
:10040000820F911DA11DB11DBC01CD0142E0660FFF
:10041000771F881F991F4A95D1F70895CF92DF92D1
:10042000EF92FF920F931F93CF93DF936C017A01AA
:100430008B01C0E0D0E0CE15DF0581F0D8016D91D1
:100440008D01D601ED91FC910190F081E02DC60166
:100450000995892B11F02196EECF7E01C701DF911E
:10046000CF911F910F91FF90EF90DF90CF90089563
:10047000089580E090E00895FC01538D448D252F70
:1004800030E0842F90E0821B930B541710F0CF962E
:10049000089501970895FC01918D828D981761F060
:1004A000828DDF01A80FB11D5D968C91928D9F5FAB
:1004B0009F73928F90E008958FEF9FEF0895CF93F1
:1004C000DF93EC012FB7F89480911D0190911E01EC
:1004D000A0911F01B09120012FBF8093290190931B
:1004E0002A01A0932B01B0932C0181E291E00E949C
:1004F0004B0297FF27C02FB7F89480911D01909170
:100500001E01A0911F01B09120012FBF4091290130
:1005100050912A0160912B0170912C01841B950B45
:10052000A60BB70B40912501509126016091270140
:100530007091280184179507A607B707B0F280E0ED
:1005400090E003C0888381E090E0DF91CF9108952F
:10055000FC01918D828D981731F0828DE80FF11D8D
:10056000858D90E008958FEF9FEF0895FC01918DA8
:10057000228D892F90E0805C9F4F821B91098F73A1
:100580009927089581E291E00E94B60221E0892B2B
:1005900009F420E0822F0895FC01848DDF01A80F6B
:1005A000B11DA35ABF4F2C91848D90E001968F739B
:1005B0009927848FA689B7892C93A089B1898C91BA
:1005C000837080648C93938D848D981306C0028809
:1005D000F389E02D80818F7D80830895EF92FF92D3
:1005E0000F931F93CF93DF93EC0181E0888F9B8D56
:1005F0008C8D981305C0E889F989808185FD26C016
:10060000F62E0B8D10E00F5F1F4F0F731127E02E9A
:100610008C8DE8120CC00FB607FCFACFE889F98977
:10062000808185FFF5CFCE010E94CC02F1CF8B8D6A
:10063000FE01E80FF11DE35AFF4FF0829FB7F894D7
:100640000B8FEA89FB89808180620AC09FB7F8948A
:10065000EE89FF896083E889F989808183708064ED
:1006600080839FBF81E090E0DF91CF911F910F9138
:10067000FF90EF900895CF93DF93EC01888D88234E
:10068000C9F0EA89FB89808185FD05C0A889B989FF
:100690008C9186FD0FC00FB607FCF5CF808185FFDA
:1006A000F2CFA889B9898C9185FFEDCFCE010E9448
:1006B000CC02E7CFDF91CF91089580E090E0892BC5
:1006C00029F00E94C20281110C9400000895AF929B
:1006D000BF92DF92EF92FF920F931F93CF93DF931E
:1006E0001F92CDB7DEB74091C1015091C201463093
:1006F000510508F481C08B01F82E60E070E0809114
:10070000C7019091C8010E94A309E091C701F0912F
:10071000C80185E58083E091C701F091C801F182AD
:10072000E091C701F091C80181E08283E091C701A7
:10073000F091C801D8018C918383E091C701F091B9
:10074000C801DF019F012C5F3F4F80E090E04D9199
:10075000840F911D2A173B07D1F781958483E0917F
:10076000C701F091C80189E98583E090C701F09045
:10077000C80187010F5F1F4F41E050E0B70181E2E0
:1007800091E00E940E02B5E0EB0EF11C80E8D82E3D
:10079000E016F106A9F0F80180818535E9F0893984
:1007A000D9F08038C9F05801FFEFAF1ABF0A41E015
:1007B00050E0B80181E291E00E940E028501E8CF8D
:1007C00041E050E0B70181E291E00E940E0281E237
:1007D00091E00E943B0310C0D98241E050E0BE018D
:1007E0006F5F7F4F81E291E00E940E02D8019C91E1
:1007F000898189278C93D7CF0F90DF91CF911F915B
:100800000F91FF90EF90DF90BF90AF900895CF933E
:10081000DF931F92CDB7DEB78983BE016F5F7F4F35
:1008200081EF0E9467030F90DF91CF9108950E949E
:100830009E091F920F920FB60F9211242F933F9390
:100840008F939F93AF93BF9380911D0190911E0151
:10085000A0911F01B09120013091180123E0230FD6
:100860002D3720F40196A11DB11D05C026E8230FE8
:100870000296A11DB11D2093180180931D01909334
:100880001E01A0931F01B093200180911901909146
:100890001A01A0911B01B0911C010196A11DB11D6F
:1008A0008093190190931A01A0931B01B0931C012E
:1008B000BF91AF919F918F913F912F910F900FBE5C
:1008C0000F901F9018951F920F920FB60F92112440
:1008D0002F933F934F935F936F937F938F939F9348
:1008E000AF93BF93EF93FF9381E291E00E94CC021C
:1008F000FF91EF91BF91AF919F918F917F916F91F8
:100900005F914F913F912F910F900FBE0F901F90CD
:1009100018951F920F920FB60F9211242F938F9359
:100920009F93EF93FF93E0913101F0913201808129
:10093000E0913701F091380182FD12C090818091E1
:100940003A018F5F8F7320913B01821751F0E09144
:100950003A01F0E0EF5DFE4F958F80933A0101C0C0
:100960008081FF91EF919F918F912F910F900FBEFA
:100970000F901F901895CF92DF92EF92FF92CF9336
:10098000DF93E1E2F1E01382128288EEC82E83E069
:10099000D82EE12CF12CC482D582E682F7828AE03F
:1009A00091E09183808385EC90E09587848784EC47
:1009B00090E09787868780EC90E0918B808B81EC2C
:1009C00090E0938B828B82EC90E0958B848B86EC0D
:1009D00090E0978B868B118E128E138E148ECEEB39
:1009E000D1E018821A82198280E490E09C838B8384
:1009F0001E821D820E947D0898878F8380E490E08C
:100A00000E947D089A87898780E091EEA0E0B0E09F
:100A10008B879C87AD87BE87CF86D88AE98AFA8A7A
:100A2000DF91CF91FF90EF90DF90CF900895CF931B
:100A3000DF931F92CDB7DEB7789484B5826084BD12
:100A400084B5816084BD85B5826085BD85B58160D2
:100A500085BD80916E00816080936E001092810050
:100A6000809181008260809381008091810081600B
:100A700080938100809180008160809380008091CC
:100A8000B10084608093B1008091B0008160809358
:100A9000B00080917A00846080937A0080917A001F
:100AA000826080937A0080917A00816080937A00DE
:100AB00080917A00806880937A001092C10060E093
:100AC0008AE00E94AD0160E08BE00E94AD0160E031
:100AD0008CE00E94AD0160E08DE00E94AD0160E01D
:100AE0008EE00E94AD0160E08FE00E94AD0160E009
:100AF00080E10E94AD0160E081E10E94AD0161E012
:100B000082E00E94AD0161E083E00E94AD0161E0FE
:100B100084E00E94AD0161E085E00E94AD0161E0EA
:100B200086E00E94AD0161E087E00E94AD0161E0D6
:100B300088E00E94AD0161E089E00E94AD0161E0C2
:100B400082E00E94600161E083E00E94600161E058
:100B500084E00E94600161E085E00E94600161E044
:100B600086E00E94600161E087E00E94600161E030
:100B700088E00E94600161E089E00E946001C0900D
:100B8000C901D090CA01E090CB01F090CC0160E0A7
:100B900079E08DE390E0A70196010E945508DA0103
:100BA000C9010197A109B109B695A79597958795B0
:100BB0009C01E0913101F091320182E08083C11407
:100BC00061EED606E104F10421F0211580E1380739
:100BD000B8F0E0913101F0913201108260E874E8E0
:100BE0008EE190E0A70196010E945508DA01C90143
:100BF0000197A109B109B695A795979587959C018D
:100C0000E0912D01F0912E013083E0912F01F091C0
:100C10003001208310923901E0913501F0913601C5
:100C200086E08083E0913301F0913401808180611E
:100C30008083E0913301F09134018081886080836A
:100C4000E0913301F0913401808180688083E091EC
:100C50003301F091340180818F7D80838091CD01BB
:100C60009091CE01A091CF01B091D0018093250148
:100C700090932601A0932701B093280139E9332EE0
:100C800042E0C42ED12CEE24E394F12C81E291E0D9
:100C90000E94B6020091BF011091C001892B09F496
:100CA000C3C001301105C1F028F00230110509F46C
:100CB00088C0ECCF8091C5019091C6010E945F026F
:100CC000E091C501F091C60180818535F9F6F09279
:100CD000C401E092C301A3C0CE0101960E945F024D
:100CE00029812038E9F1293951F02535F1F583E0E2
:100CF0000E9407041093C4010093C301C7CF209141
:100D0000C3013091C401E091C501F091C601828117
:100D100090E0AC014C5F5F4F2417350711F083E082
:100D200045C0DF0140E050E06D91460F511D019735
:100D30008C3F6FEF9607C1F7442311F081E036C076
:100D4000C90101969093C4018093C301E20FF31F80
:100D5000308283E090E09093C0018093BF0196CFF2
:100D6000D092C001C092BF0191CF8091C3019091F8
:100D7000C401BC016F5F7F4F4091C1015091C2011E
:100D80006417750790F44091C5015091C601FA01AE
:100D9000E80FF91F20838091C3019091C40101964F
:100DA0009093C4018093C30171CF82E00E94070435
:100DB0001092C4011092C3011092C0011092BF01A1
:100DC00065CF8091C3019091C40101962091C1012A
:100DD0003091C20182179307D8F4CE0101960E9488
:100DE0005F02E091C501F091C6018091C30190912D
:100DF000C401E80FF91F8981805880838091C30165
:100E00009091C40101969093C4018093C30107C0DF
:100E100082E00E9407041092C4011092C301F09274
:100E2000C001E092BF0132CF0330110509F044C088
:100E3000E091C501F091C60181818230D1F030F49A
:100E4000882351F0813061F561E014C08131B1F047
:100E5000823131F511E01CC080E00E9407040E943D
:100E6000E7008983BE016F5F7F4F80EF0E946703B9
:100E70001AC060E083810E948F0108C011E061E028
:100E8000812F0E948F011F5F1930C9F780E009C0D0
:100E900060E0812F0E948F011F5F1930C9F7F6CFE4
:100EA00083E00E9407041092C4011092C3011092C3
:100EB000C0011092BF01E5C08AE00E94BE008C0113
:100EC0008BE00E94BE004C018CE00E94BE00A1E0BD
:100ED000B0E08A94892811F0A0E0B0E0FD01EE0FA7
:100EE000FF1FA1E0B0E0019711F0A0E0B0E0AA0F71
:100EF000BB1FAA0FBB1FAE2BE1E00130110509F0AB
:100F0000E0E01A2F1E2B8DE00E94BE00E1E0F0E031
:100F1000019711F0E0E0F0E0A3E0EE0FFF1FAA95CB
:100F2000E1F71E2B8EE00E94BE0061E070E00197A9
:100F300011F060E070E0E4E0660F771FEA95E1F7FA
:100F4000162B8FE00E94BE0041E050E0019711F0A7
:100F500040E050E065E0440F551F6A95E1F7142B1F
:100F600080E10E94BE0021E030E0019711F020E016
:100F700030E046E0220F331F4A95E1F7122B81E162
:100F80000E94BE0021E030E0019711F020E030E047
:100F90003695322F222737952795012F022B8091E6
:100FA000BE01801709F46DC00E94E700182F00FFF2
:100FB00005C0682F617082E00E94600101FF06C0D9
:100FC00011FB662760F983E00E94600102FF06C002
:100FD00012FB662760F984E00E94600103FF06C0EF
:100FE00013FB662760F985E00E94600104FF06C0DC
:100FF00014FB662760F986E00E94600105FF06C0C9
:1010000015FB662760F987E00E94600106FF06C0B5
:1010100016FB662760F988E00E94600107FF07C0A1
:10102000612F661F6627661F89E00E94600100939A
:10103000BE01002331F10E94E9014B015C0188EC03
:10104000482E512C612C712C0E94E901DC01CB014E
:1010500088199909AA09BB09883E9340A105B105E1
:1010600098F361E0461A51086108710888EE880E0D
:1010700083E0981EA11CB11C411451046104710449
:1010800019F70E945D0302CE8091C5019091C601BF
:10109000009711F00E9415098091C7019091C80135
:1010A000009711F00C9415090895A1E21A2EAA1BBD
:1010B000BB1BFD010DC0AA1FBB1FEE1FFF1FA21708
:1010C000B307E407F50720F0A21BB30BE40BF50B05
:1010D000661F771F881F991F1A9469F7609570958E
:1010E000809590959B01AC01BD01CF010895EE0F55
:1010F000FF1F0590F491E02D09940F931F93CF9358
:10110000DF938230910510F482E090E0E091D3010A
:10111000F091D40120E030E0A0E0B0E0309719F188
:10112000408151810281138148175907C8F0841703
:10113000950769F4109731F012960C931297139655
:101140001C9327C00093D3011093D40122C0211512
:10115000310519F04217530718F49A01BD01EF0148
:10116000DF01F801DBCF21153105F9F0281B390B20
:101170002430310580F48A819B816115710521F04D
:10118000FB019383828304C09093D4018093D301A5
:10119000FE01329644C0FE01E20FF31F819391934A
:1011A00022503109398328833AC02091D1013091EE
:1011B000D201232B41F4209102013091030130939D
:1011C000D2012093D101209100013091010121151C
:1011D000310541F42DB73EB740910401509105010E
:1011E000241B350BE091D101F091D201E217F307F6
:1011F000A0F42E1B3F0B2817390778F0AC014E5F87
:101200005F4F2417350748F04E0F5F1F5093D201F0
:101210004093D1018193919302C0E0E0F0E0CF01CF
:10122000DF91CF911F910F910895CF93DF93009796
:1012300009F481C0FC01329713821282A091D3017C
:10124000B091D401109781F420813181820F931FD6
:101250002091D1013091D2012817390751F5F0932F
:10126000D201E093D10167C0ED0120E030E0CE175C
:10127000DF0740F44A815B819E0141155105F1F081
:10128000EA01F5CFD383C28340815181840F951F3A
:10129000C817D90759F488819981840F951F029640
:1012A000918380838A819B81938382832115310579
:1012B00029F4F093D401E093D3013DC0E901FB830D
:1012C000EA8349915991C40FD51FEC17FD0761F4CA
:1012D00080819181840F951F0296E901998388830B
:1012E000828193819B838A83E0E0F0E012968D9166
:1012F0009C911397009719F0FD01DC01F7CF8D91B8
:101300009C9111979D012E5F3F4F820F931F20915B
:10131000D1013091D2012817390769F4309729F4A7
:101320001092D4011092D30102C013821282B093A2
:10133000D201A093D101DF91CF91089581E090E097
:10134000F8940C94AA09DC0101C06D9341505040FF
:10135000E0F7089510E0CAE6D0E004C0FE010E9464
:0E13600077082196CB36D107C9F7F894FFCF56
:10136E000000D501800000000000EE020E023C02DB
:08137E003B03B6024B02A8027A
:00000001FF
